{
  "contractName": "MyNFT",
  "abi": [
    {
      "inputs": [],
      "stateMutability": "nonpayable",
      "type": "constructor"
    },
    {
      "anonymous": false,
      "inputs": [
        {
          "indexed": true,
          "internalType": "address",
          "name": "owner",
          "type": "address"
        },
        {
          "indexed": true,
          "internalType": "address",
          "name": "approved",
          "type": "address"
        },
        {
          "indexed": true,
          "internalType": "uint256",
          "name": "tokenId",
          "type": "uint256"
        }
      ],
      "name": "Approval",
      "type": "event"
    },
    {
      "anonymous": false,
      "inputs": [
        {
          "indexed": true,
          "internalType": "address",
          "name": "owner",
          "type": "address"
        },
        {
          "indexed": true,
          "internalType": "address",
          "name": "operator",
          "type": "address"
        },
        {
          "indexed": false,
          "internalType": "bool",
          "name": "approved",
          "type": "bool"
        }
      ],
      "name": "ApprovalForAll",
      "type": "event"
    },
    {
      "anonymous": false,
      "inputs": [
        {
          "indexed": true,
          "internalType": "address",
          "name": "previousOwner",
          "type": "address"
        },
        {
          "indexed": true,
          "internalType": "address",
          "name": "newOwner",
          "type": "address"
        }
      ],
      "name": "OwnershipTransferred",
      "type": "event"
    },
    {
      "anonymous": false,
      "inputs": [
        {
          "indexed": true,
          "internalType": "address",
          "name": "from",
          "type": "address"
        },
        {
          "indexed": true,
          "internalType": "address",
          "name": "to",
          "type": "address"
        },
        {
          "indexed": true,
          "internalType": "uint256",
          "name": "tokenId",
          "type": "uint256"
        }
      ],
      "name": "Transfer",
      "type": "event"
    },
    {
      "inputs": [
        {
          "internalType": "address",
          "name": "to",
          "type": "address"
        },
        {
          "internalType": "uint256",
          "name": "tokenId",
          "type": "uint256"
        }
      ],
      "name": "approve",
      "outputs": [],
      "stateMutability": "nonpayable",
      "type": "function"
    },
    {
      "inputs": [
        {
          "internalType": "address",
          "name": "owner",
          "type": "address"
        }
      ],
      "name": "balanceOf",
      "outputs": [
        {
          "internalType": "uint256",
          "name": "",
          "type": "uint256"
        }
      ],
      "stateMutability": "view",
      "type": "function"
    },
    {
      "inputs": [
        {
          "internalType": "uint256",
          "name": "tokenId",
          "type": "uint256"
        }
      ],
      "name": "getApproved",
      "outputs": [
        {
          "internalType": "address",
          "name": "",
          "type": "address"
        }
      ],
      "stateMutability": "view",
      "type": "function"
    },
    {
      "inputs": [
        {
          "internalType": "address",
          "name": "owner",
          "type": "address"
        },
        {
          "internalType": "address",
          "name": "operator",
          "type": "address"
        }
      ],
      "name": "isApprovedForAll",
      "outputs": [
        {
          "internalType": "bool",
          "name": "",
          "type": "bool"
        }
      ],
      "stateMutability": "view",
      "type": "function"
    },
    {
      "inputs": [],
      "name": "name",
      "outputs": [
        {
          "internalType": "string",
          "name": "",
          "type": "string"
        }
      ],
      "stateMutability": "view",
      "type": "function"
    },
    {
      "inputs": [],
      "name": "owner",
      "outputs": [
        {
          "internalType": "address",
          "name": "",
          "type": "address"
        }
      ],
      "stateMutability": "view",
      "type": "function"
    },
    {
      "inputs": [
        {
          "internalType": "uint256",
          "name": "tokenId",
          "type": "uint256"
        }
      ],
      "name": "ownerOf",
      "outputs": [
        {
          "internalType": "address",
          "name": "",
          "type": "address"
        }
      ],
      "stateMutability": "view",
      "type": "function"
    },
    {
      "inputs": [],
      "name": "renounceOwnership",
      "outputs": [],
      "stateMutability": "nonpayable",
      "type": "function"
    },
    {
      "inputs": [
        {
          "internalType": "address",
          "name": "from",
          "type": "address"
        },
        {
          "internalType": "address",
          "name": "to",
          "type": "address"
        },
        {
          "internalType": "uint256",
          "name": "tokenId",
          "type": "uint256"
        }
      ],
      "name": "safeTransferFrom",
      "outputs": [],
      "stateMutability": "nonpayable",
      "type": "function"
    },
    {
      "inputs": [
        {
          "internalType": "address",
          "name": "from",
          "type": "address"
        },
        {
          "internalType": "address",
          "name": "to",
          "type": "address"
        },
        {
          "internalType": "uint256",
          "name": "tokenId",
          "type": "uint256"
        },
        {
          "internalType": "bytes",
          "name": "_data",
          "type": "bytes"
        }
      ],
      "name": "safeTransferFrom",
      "outputs": [],
      "stateMutability": "nonpayable",
      "type": "function"
    },
    {
      "inputs": [
        {
          "internalType": "address",
          "name": "operator",
          "type": "address"
        },
        {
          "internalType": "bool",
          "name": "approved",
          "type": "bool"
        }
      ],
      "name": "setApprovalForAll",
      "outputs": [],
      "stateMutability": "nonpayable",
      "type": "function"
    },
    {
      "inputs": [
        {
          "internalType": "bytes4",
          "name": "interfaceId",
          "type": "bytes4"
        }
      ],
      "name": "supportsInterface",
      "outputs": [
        {
          "internalType": "bool",
          "name": "",
          "type": "bool"
        }
      ],
      "stateMutability": "view",
      "type": "function"
    },
    {
      "inputs": [],
      "name": "symbol",
      "outputs": [
        {
          "internalType": "string",
          "name": "",
          "type": "string"
        }
      ],
      "stateMutability": "view",
      "type": "function"
    },
    {
      "inputs": [
        {
          "internalType": "uint256",
          "name": "tokenId",
          "type": "uint256"
        }
      ],
      "name": "tokenURI",
      "outputs": [
        {
          "internalType": "string",
          "name": "",
          "type": "string"
        }
      ],
      "stateMutability": "view",
      "type": "function"
    },
    {
      "inputs": [
        {
          "internalType": "address",
          "name": "from",
          "type": "address"
        },
        {
          "internalType": "address",
          "name": "to",
          "type": "address"
        },
        {
          "internalType": "uint256",
          "name": "tokenId",
          "type": "uint256"
        }
      ],
      "name": "transferFrom",
      "outputs": [],
      "stateMutability": "nonpayable",
      "type": "function"
    },
    {
      "inputs": [
        {
          "internalType": "address",
          "name": "newOwner",
          "type": "address"
        }
      ],
      "name": "transferOwnership",
      "outputs": [],
      "stateMutability": "nonpayable",
      "type": "function"
    },
    {
      "inputs": [
        {
          "internalType": "address",
          "name": "recipient",
          "type": "address"
        },
        {
          "internalType": "string",
          "name": "tokenURI",
          "type": "string"
        }
      ],
      "name": "mintNFT",
      "outputs": [
        {
          "internalType": "uint256",
          "name": "",
          "type": "uint256"
        }
      ],
      "stateMutability": "nonpayable",
      "type": "function"
    },
    {
      "inputs": [
        {
          "internalType": "contract IERC721",
          "name": "_nft",
          "type": "address"
        }
      ],
      "name": "transfer",
      "outputs": [],
      "stateMutability": "nonpayable",
      "type": "function"
    }
  ],
  "bytecode": "0x60806040523480156200001157600080fd5b506040518060400160405280600b81526020017f48656c6c6f20576f726c640000000000000000000000000000000000000000008152506040518060400160405280600281526020017f4857000000000000000000000000000000000000000000000000000000000000815250816000908051906020019062000096929190620001a6565b508060019080519060200190620000af929190620001a6565b505050620000d2620000c6620000d860201b60201c565b620000e060201b60201c565b620002bb565b600033905090565b6000600760009054906101000a900473ffffffffffffffffffffffffffffffffffffffff16905081600760006101000a81548173ffffffffffffffffffffffffffffffffffffffff021916908373ffffffffffffffffffffffffffffffffffffffff1602179055508173ffffffffffffffffffffffffffffffffffffffff168173ffffffffffffffffffffffffffffffffffffffff167f8be0079c531659141344cd1fd0a4f28419497f9722a3daafe3b4186f6b6457e060405160405180910390a35050565b828054620001b49062000256565b90600052602060002090601f016020900481019282620001d8576000855562000224565b82601f10620001f357805160ff191683800117855562000224565b8280016001018555821562000224579182015b828111156200022357825182559160200191906001019062000206565b5b50905062000233919062000237565b5090565b5b808211156200025257600081600090555060010162000238565b5090565b600060028204905060018216806200026f57607f821691505b602082108114156200028657620002856200028c565b5b50919050565b7f4e487b7100000000000000000000000000000000000000000000000000000000600052602260045260246000fd5b61316a80620002cb6000396000f3fe608060405234801561001057600080fd5b50600436106101165760003560e01c8063715018a6116100a2578063b88d4fde11610071578063b88d4fde146102cb578063c87b56dd146102e7578063e985e9c514610317578063eacabe1414610347578063f2fde38b1461037757610116565b8063715018a6146102695780638da5cb5b1461027357806395d89b4114610291578063a22cb465146102af57610116565b80631a695230116100e95780631a695230146101b557806323b872dd146101d157806342842e0e146101ed5780636352211e1461020957806370a082311461023957610116565b806301ffc9a71461011b57806306fdde031461014b578063081812fc14610169578063095ea7b314610199575b600080fd5b6101356004803603810190610130919061203d565b610393565b60405161014291906124f9565b60405180910390f35b610153610475565b6040516101609190612514565b60405180910390f35b610183600480360381019061017e91906120c4565b610507565b604051610190919061245b565b60405180910390f35b6101b360048036038101906101ae9190611ffd565b61058c565b005b6101cf60048036038101906101ca9190612097565b6106a4565b005b6101eb60048036038101906101e69190611e8b565b610725565b005b61020760048036038101906102029190611e8b565b610785565b005b610223600480360381019061021e91906120c4565b6107a5565b604051610230919061245b565b60405180910390f35b610253600480360381019061024e9190611e1e565b610857565b6040516102609190612776565b60405180910390f35b61027161090f565b005b61027b610997565b604051610288919061245b565b60405180910390f35b6102996109c1565b6040516102a69190612514565b60405180910390f35b6102c960048036038101906102c49190611f61565b610a53565b005b6102e560048036038101906102e09190611ede565b610a69565b005b61030160048036038101906102fc91906120c4565b610acb565b60405161030e9190612514565b60405180910390f35b610331600480360381019061032c9190611e4b565b610c1d565b60405161033e91906124f9565b60405180910390f35b610361600480360381019061035c9190611fa1565b610cb1565b60405161036e9190612776565b60405180910390f35b610391600480360381019061038c9190611e1e565b610d65565b005b60007f80ac58cd000000000000000000000000000000000000000000000000000000007bffffffffffffffffffffffffffffffffffffffffffffffffffffffff1916827bffffffffffffffffffffffffffffffffffffffffffffffffffffffff1916148061045e57507f5b5e139f000000000000000000000000000000000000000000000000000000007bffffffffffffffffffffffffffffffffffffffffffffffffffffffff1916827bffffffffffffffffffffffffffffffffffffffffffffffffffffffff1916145b8061046e575061046d82610e5d565b5b9050919050565b606060008054610484906129de565b80601f01602080910402602001604051908101604052809291908181526020018280546104b0906129de565b80156104fd5780601f106104d2576101008083540402835291602001916104fd565b820191906000526020600020905b8154815290600101906020018083116104e057829003601f168201915b5050505050905090565b600061051282610ec7565b610551576040517f08c379a0000000000000000000000000000000000000000000000000000000008152600401610548906126d6565b60405180910390fd5b6004600083815260200190815260200160002060009054906101000a900473ffffffffffffffffffffffffffffffffffffffff169050919050565b6000610597826107a5565b90508073ffffffffffffffffffffffffffffffffffffffff168373ffffffffffffffffffffffffffffffffffffffff161415610608576040517f08c379a00000000000000000000000000000000000000000000000000000000081526004016105ff90612736565b60405180910390fd5b8073ffffffffffffffffffffffffffffffffffffffff16610627610f33565b73ffffffffffffffffffffffffffffffffffffffff161480610656575061065581610650610f33565b610c1d565b5b610695576040517f08c379a000000000000000000000000000000000000000000000000000000000815260040161068c90612616565b60405180910390fd5b61069f8383610f3b565b505050565b60006106b06008610ff4565b90508173ffffffffffffffffffffffffffffffffffffffff166323b872dd3330846040518463ffffffff1660e01b81526004016106ef93929190612476565b600060405180830381600087803b15801561070957600080fd5b505af115801561071d573d6000803e3d6000fd5b505050505050565b610736610730610f33565b82611002565b610775576040517f08c379a000000000000000000000000000000000000000000000000000000000815260040161076c90612756565b60405180910390fd5b6107808383836110e0565b505050565b6107a083838360405180602001604052806000815250610a69565b505050565b6000806002600084815260200190815260200160002060009054906101000a900473ffffffffffffffffffffffffffffffffffffffff169050600073ffffffffffffffffffffffffffffffffffffffff168173ffffffffffffffffffffffffffffffffffffffff16141561084e576040517f08c379a000000000000000000000000000000000000000000000000000000000815260040161084590612656565b60405180910390fd5b80915050919050565b60008073ffffffffffffffffffffffffffffffffffffffff168273ffffffffffffffffffffffffffffffffffffffff1614156108c8576040517f08c379a00000000000000000000000000000000000000000000000000000000081526004016108bf90612636565b60405180910390fd5b600360008373ffffffffffffffffffffffffffffffffffffffff1673ffffffffffffffffffffffffffffffffffffffff168152602001908152602001600020549050919050565b610917610f33565b73ffffffffffffffffffffffffffffffffffffffff16610935610997565b73ffffffffffffffffffffffffffffffffffffffff161461098b576040517f08c379a0000000000000000000000000000000000000000000000000000000008152600401610982906126f6565b60405180910390fd5b6109956000611347565b565b6000600760009054906101000a900473ffffffffffffffffffffffffffffffffffffffff16905090565b6060600180546109d0906129de565b80601f01602080910402602001604051908101604052809291908181526020018280546109fc906129de565b8015610a495780601f10610a1e57610100808354040283529160200191610a49565b820191906000526020600020905b815481529060010190602001808311610a2c57829003601f168201915b5050505050905090565b610a65610a5e610f33565b838361140d565b5050565b610a7a610a74610f33565b83611002565b610ab9576040517f08c379a0000000000000000000000000000000000000000000000000000000008152600401610ab090612756565b60405180910390fd5b610ac58484848461157a565b50505050565b6060610ad682610ec7565b610b15576040517f08c379a0000000000000000000000000000000000000000000000000000000008152600401610b0c906126b6565b60405180910390fd5b6000600660008481526020019081526020016000208054610b35906129de565b80601f0160208091040260200160405190810160405280929190818152602001828054610b61906129de565b8015610bae5780601f10610b8357610100808354040283529160200191610bae565b820191906000526020600020905b815481529060010190602001808311610b9157829003601f168201915b505050505090506000610bbf6115d6565b9050600081511415610bd5578192505050610c18565b600082511115610c0a578082604051602001610bf2929190612437565b60405160208183030381529060405292505050610c18565b610c13846115ed565b925050505b919050565b6000600560008473ffffffffffffffffffffffffffffffffffffffff1673ffffffffffffffffffffffffffffffffffffffff16815260200190815260200160002060008373ffffffffffffffffffffffffffffffffffffffff1673ffffffffffffffffffffffffffffffffffffffff16815260200190815260200160002060009054906101000a900460ff16905092915050565b6000610cbb610f33565b73ffffffffffffffffffffffffffffffffffffffff16610cd9610997565b73ffffffffffffffffffffffffffffffffffffffff1614610d2f576040517f08c379a0000000000000000000000000000000000000000000000000000000008152600401610d26906126f6565b60405180910390fd5b610d396008611694565b6000610d456008610ff4565b9050610d5184826116aa565b610d5b8184611884565b8091505092915050565b610d6d610f33565b73ffffffffffffffffffffffffffffffffffffffff16610d8b610997565b73ffffffffffffffffffffffffffffffffffffffff1614610de1576040517f08c379a0000000000000000000000000000000000000000000000000000000008152600401610dd8906126f6565b60405180910390fd5b600073ffffffffffffffffffffffffffffffffffffffff168173ffffffffffffffffffffffffffffffffffffffff161415610e51576040517f08c379a0000000000000000000000000000000000000000000000000000000008152600401610e4890612556565b60405180910390fd5b610e5a81611347565b50565b60007f01ffc9a7000000000000000000000000000000000000000000000000000000007bffffffffffffffffffffffffffffffffffffffffffffffffffffffff1916827bffffffffffffffffffffffffffffffffffffffffffffffffffffffff1916149050919050565b60008073ffffffffffffffffffffffffffffffffffffffff166002600084815260200190815260200160002060009054906101000a900473ffffffffffffffffffffffffffffffffffffffff1673ffffffffffffffffffffffffffffffffffffffff1614159050919050565b600033905090565b816004600083815260200190815260200160002060006101000a81548173ffffffffffffffffffffffffffffffffffffffff021916908373ffffffffffffffffffffffffffffffffffffffff160217905550808273ffffffffffffffffffffffffffffffffffffffff16610fae836107a5565b73ffffffffffffffffffffffffffffffffffffffff167f8c5be1e5ebec7d5bd14f71427d1e84f3dd0314c0f7b2291e5b200ac8c7c3b92560405160405180910390a45050565b600081600001549050919050565b600061100d82610ec7565b61104c576040517f08c379a0000000000000000000000000000000000000000000000000000000008152600401611043906125f6565b60405180910390fd5b6000611057836107a5565b90508073ffffffffffffffffffffffffffffffffffffffff168473ffffffffffffffffffffffffffffffffffffffff16148061109957506110988185610c1d565b5b806110d757508373ffffffffffffffffffffffffffffffffffffffff166110bf84610507565b73ffffffffffffffffffffffffffffffffffffffff16145b91505092915050565b8273ffffffffffffffffffffffffffffffffffffffff16611100826107a5565b73ffffffffffffffffffffffffffffffffffffffff1614611156576040517f08c379a000000000000000000000000000000000000000000000000000000000815260040161114d90612576565b60405180910390fd5b600073ffffffffffffffffffffffffffffffffffffffff168273ffffffffffffffffffffffffffffffffffffffff1614156111c6576040517f08c379a00000000000000000000000000000000000000000000000000000000081526004016111bd906125b6565b60405180910390fd5b6111d18383836118f8565b6111dc600082610f3b565b6001600360008573ffffffffffffffffffffffffffffffffffffffff1673ffffffffffffffffffffffffffffffffffffffff168152602001908152602001600020600082825461122c91906128e2565b925050819055506001600360008473ffffffffffffffffffffffffffffffffffffffff1673ffffffffffffffffffffffffffffffffffffffff1681526020019081526020016000206000828254611283919061285b565b92505081905550816002600083815260200190815260200160002060006101000a81548173ffffffffffffffffffffffffffffffffffffffff021916908373ffffffffffffffffffffffffffffffffffffffff160217905550808273ffffffffffffffffffffffffffffffffffffffff168473ffffffffffffffffffffffffffffffffffffffff167fddf252ad1be2c89b69c2b068fc378daa952ba7f163c4a11628f55a4df523b3ef60405160405180910390a46113428383836118fd565b505050565b6000600760009054906101000a900473ffffffffffffffffffffffffffffffffffffffff16905081600760006101000a81548173ffffffffffffffffffffffffffffffffffffffff021916908373ffffffffffffffffffffffffffffffffffffffff1602179055508173ffffffffffffffffffffffffffffffffffffffff168173ffffffffffffffffffffffffffffffffffffffff167f8be0079c531659141344cd1fd0a4f28419497f9722a3daafe3b4186f6b6457e060405160405180910390a35050565b8173ffffffffffffffffffffffffffffffffffffffff168373ffffffffffffffffffffffffffffffffffffffff16141561147c576040517f08c379a0000000000000000000000000000000000000000000000000000000008152600401611473906125d6565b60405180910390fd5b80600560008573ffffffffffffffffffffffffffffffffffffffff1673ffffffffffffffffffffffffffffffffffffffff16815260200190815260200160002060008473ffffffffffffffffffffffffffffffffffffffff1673ffffffffffffffffffffffffffffffffffffffff16815260200190815260200160002060006101000a81548160ff0219169083151502179055508173ffffffffffffffffffffffffffffffffffffffff168373ffffffffffffffffffffffffffffffffffffffff167f17307eab39ab6107e8899845ad3d59bd9653f200f220920489ca2b5937696c318360405161156d91906124f9565b60405180910390a3505050565b6115858484846110e0565b61159184848484611902565b6115d0576040517f08c379a00000000000000000000000000000000000000000000000000000000081526004016115c790612536565b60405180910390fd5b50505050565b606060405180602001604052806000815250905090565b60606115f882610ec7565b611637576040517f08c379a000000000000000000000000000000000000000000000000000000000815260040161162e90612716565b60405180910390fd5b60006116416115d6565b90506000815111611661576040518060200160405280600081525061168c565b8061166b84611a99565b60405160200161167c929190612437565b6040516020818303038152906040525b915050919050565b6001816000016000828254019250508190555050565b600073ffffffffffffffffffffffffffffffffffffffff168273ffffffffffffffffffffffffffffffffffffffff16141561171a576040517f08c379a000000000000000000000000000000000000000000000000000000000815260040161171190612696565b60405180910390fd5b61172381610ec7565b15611763576040517f08c379a000000000000000000000000000000000000000000000000000000000815260040161175a90612596565b60405180910390fd5b61176f600083836118f8565b6001600360008473ffffffffffffffffffffffffffffffffffffffff1673ffffffffffffffffffffffffffffffffffffffff16815260200190815260200160002060008282546117bf919061285b565b92505081905550816002600083815260200190815260200160002060006101000a81548173ffffffffffffffffffffffffffffffffffffffff021916908373ffffffffffffffffffffffffffffffffffffffff160217905550808273ffffffffffffffffffffffffffffffffffffffff16600073ffffffffffffffffffffffffffffffffffffffff167fddf252ad1be2c89b69c2b068fc378daa952ba7f163c4a11628f55a4df523b3ef60405160405180910390a4611880600083836118fd565b5050565b61188d82610ec7565b6118cc576040517f08c379a00000000000000000000000000000000000000000000000000000000081526004016118c390612676565b60405180910390fd5b806006600084815260200190815260200160002090805190602001906118f3929190611c1d565b505050565b505050565b505050565b60006119238473ffffffffffffffffffffffffffffffffffffffff16611bfa565b15611a8c578373ffffffffffffffffffffffffffffffffffffffff1663150b7a0261194c610f33565b8786866040518563ffffffff1660e01b815260040161196e94939291906124ad565b602060405180830381600087803b15801561198857600080fd5b505af19250505080156119b957506040513d601f19601f820116820180604052508101906119b6919061206a565b60015b611a3c573d80600081146119e9576040519150601f19603f3d011682016040523d82523d6000602084013e6119ee565b606091505b50600081511415611a34576040517f08c379a0000000000000000000000000000000000000000000000000000000008152600401611a2b90612536565b60405180910390fd5b805181602001fd5b63150b7a0260e01b7bffffffffffffffffffffffffffffffffffffffffffffffffffffffff1916817bffffffffffffffffffffffffffffffffffffffffffffffffffffffff191614915050611a91565b600190505b949350505050565b60606000821415611ae1576040518060400160405280600181526020017f30000000000000000000000000000000000000000000000000000000000000008152509050611bf5565b600082905060005b60008214611b13578080611afc90612a41565b915050600a82611b0c91906128b1565b9150611ae9565b60008167ffffffffffffffff811115611b2f57611b2e612b77565b5b6040519080825280601f01601f191660200182016040528015611b615781602001600182028036833780820191505090505b5090505b60008514611bee57600182611b7a91906128e2565b9150600a85611b899190612a8a565b6030611b95919061285b565b60f81b818381518110611bab57611baa612b48565b5b60200101907effffffffffffffffffffffffffffffffffffffffffffffffffffffffffffff1916908160001a905350600a85611be791906128b1565b9450611b65565b8093505050505b919050565b6000808273ffffffffffffffffffffffffffffffffffffffff163b119050919050565b828054611c29906129de565b90600052602060002090601f016020900481019282611c4b5760008555611c92565b82601f10611c6457805160ff1916838001178555611c92565b82800160010185558215611c92579182015b82811115611c91578251825591602001919060010190611c76565b5b509050611c9f9190611ca3565b5090565b5b80821115611cbc576000816000905550600101611ca4565b5090565b6000611cd3611cce846127b6565b612791565b905082815260208101848484011115611cef57611cee612bab565b5b611cfa84828561299c565b509392505050565b6000611d15611d10846127e7565b612791565b905082815260208101848484011115611d3157611d30612bab565b5b611d3c84828561299c565b509392505050565b600081359050611d53816130c1565b92915050565b600081359050611d68816130d8565b92915050565b600081359050611d7d816130ef565b92915050565b600081519050611d92816130ef565b92915050565b600082601f830112611dad57611dac612ba6565b5b8135611dbd848260208601611cc0565b91505092915050565b600081359050611dd581613106565b92915050565b600082601f830112611df057611def612ba6565b5b8135611e00848260208601611d02565b91505092915050565b600081359050611e188161311d565b92915050565b600060208284031215611e3457611e33612bb5565b5b6000611e4284828501611d44565b91505092915050565b60008060408385031215611e6257611e61612bb5565b5b6000611e7085828601611d44565b9250506020611e8185828601611d44565b9150509250929050565b600080600060608486031215611ea457611ea3612bb5565b5b6000611eb286828701611d44565b9350506020611ec386828701611d44565b9250506040611ed486828701611e09565b9150509250925092565b60008060008060808587031215611ef857611ef7612bb5565b5b6000611f0687828801611d44565b9450506020611f1787828801611d44565b9350506040611f2887828801611e09565b925050606085013567ffffffffffffffff811115611f4957611f48612bb0565b5b611f5587828801611d98565b91505092959194509250565b60008060408385031215611f7857611f77612bb5565b5b6000611f8685828601611d44565b9250506020611f9785828601611d59565b9150509250929050565b60008060408385031215611fb857611fb7612bb5565b5b6000611fc685828601611d44565b925050602083013567ffffffffffffffff811115611fe757611fe6612bb0565b5b611ff385828601611ddb565b9150509250929050565b6000806040838503121561201457612013612bb5565b5b600061202285828601611d44565b925050602061203385828601611e09565b9150509250929050565b60006020828403121561205357612052612bb5565b5b600061206184828501611d6e565b91505092915050565b6000602082840312156120805761207f612bb5565b5b600061208e84828501611d83565b91505092915050565b6000602082840312156120ad576120ac612bb5565b5b60006120bb84828501611dc6565b91505092915050565b6000602082840312156120da576120d9612bb5565b5b60006120e884828501611e09565b91505092915050565b6120fa81612916565b82525050565b61210981612928565b82525050565b600061211a82612818565b612124818561282e565b93506121348185602086016129ab565b61213d81612bba565b840191505092915050565b600061215382612823565b61215d818561283f565b935061216d8185602086016129ab565b61217681612bba565b840191505092915050565b600061218c82612823565b6121968185612850565b93506121a68185602086016129ab565b80840191505092915050565b60006121bf60328361283f565b91506121ca82612bcb565b604082019050919050565b60006121e260268361283f565b91506121ed82612c1a565b604082019050919050565b600061220560258361283f565b915061221082612c69565b604082019050919050565b6000612228601c8361283f565b915061223382612cb8565b602082019050919050565b600061224b60248361283f565b915061225682612ce1565b604082019050919050565b600061226e60198361283f565b915061227982612d30565b602082019050919050565b6000612291602c8361283f565b915061229c82612d59565b604082019050919050565b60006122b460388361283f565b91506122bf82612da8565b604082019050919050565b60006122d7602a8361283f565b91506122e282612df7565b604082019050919050565b60006122fa60298361283f565b915061230582612e46565b604082019050919050565b600061231d602e8361283f565b915061232882612e95565b604082019050919050565b600061234060208361283f565b915061234b82612ee4565b602082019050919050565b600061236360318361283f565b915061236e82612f0d565b604082019050919050565b6000612386602c8361283f565b915061239182612f5c565b604082019050919050565b60006123a960208361283f565b91506123b482612fab565b602082019050919050565b60006123cc602f8361283f565b91506123d782612fd4565b604082019050919050565b60006123ef60218361283f565b91506123fa82613023565b604082019050919050565b600061241260318361283f565b915061241d82613072565b604082019050919050565b61243181612992565b82525050565b60006124438285612181565b915061244f8284612181565b91508190509392505050565b600060208201905061247060008301846120f1565b92915050565b600060608201905061248b60008301866120f1565b61249860208301856120f1565b6124a56040830184612428565b949350505050565b60006080820190506124c260008301876120f1565b6124cf60208301866120f1565b6124dc6040830185612428565b81810360608301526124ee818461210f565b905095945050505050565b600060208201905061250e6000830184612100565b92915050565b6000602082019050818103600083015261252e8184612148565b905092915050565b6000602082019050818103600083015261254f816121b2565b9050919050565b6000602082019050818103600083015261256f816121d5565b9050919050565b6000602082019050818103600083015261258f816121f8565b9050919050565b600060208201905081810360008301526125af8161221b565b9050919050565b600060208201905081810360008301526125cf8161223e565b9050919050565b600060208201905081810360008301526125ef81612261565b9050919050565b6000602082019050818103600083015261260f81612284565b9050919050565b6000602082019050818103600083015261262f816122a7565b9050919050565b6000602082019050818103600083015261264f816122ca565b9050919050565b6000602082019050818103600083015261266f816122ed565b9050919050565b6000602082019050818103600083015261268f81612310565b9050919050565b600060208201905081810360008301526126af81612333565b9050919050565b600060208201905081810360008301526126cf81612356565b9050919050565b600060208201905081810360008301526126ef81612379565b9050919050565b6000602082019050818103600083015261270f8161239c565b9050919050565b6000602082019050818103600083015261272f816123bf565b9050919050565b6000602082019050818103600083015261274f816123e2565b9050919050565b6000602082019050818103600083015261276f81612405565b9050919050565b600060208201905061278b6000830184612428565b92915050565b600061279b6127ac565b90506127a78282612a10565b919050565b6000604051905090565b600067ffffffffffffffff8211156127d1576127d0612b77565b5b6127da82612bba565b9050602081019050919050565b600067ffffffffffffffff82111561280257612801612b77565b5b61280b82612bba565b9050602081019050919050565b600081519050919050565b600081519050919050565b600082825260208201905092915050565b600082825260208201905092915050565b600081905092915050565b600061286682612992565b915061287183612992565b9250827fffffffffffffffffffffffffffffffffffffffffffffffffffffffffffffffff038211156128a6576128a5612abb565b5b828201905092915050565b60006128bc82612992565b91506128c783612992565b9250826128d7576128d6612aea565b5b828204905092915050565b60006128ed82612992565b91506128f883612992565b92508282101561290b5761290a612abb565b5b828203905092915050565b600061292182612972565b9050919050565b60008115159050919050565b60007fffffffff0000000000000000000000000000000000000000000000000000000082169050919050565b600061296b82612916565b9050919050565b600073ffffffffffffffffffffffffffffffffffffffff82169050919050565b6000819050919050565b82818337600083830152505050565b60005b838110156129c95780820151818401526020810190506129ae565b838111156129d8576000848401525b50505050565b600060028204905060018216806129f657607f821691505b60208210811415612a0a57612a09612b19565b5b50919050565b612a1982612bba565b810181811067ffffffffffffffff82111715612a3857612a37612b77565b5b80604052505050565b6000612a4c82612992565b91507fffffffffffffffffffffffffffffffffffffffffffffffffffffffffffffffff821415612a7f57612a7e612abb565b5b600182019050919050565b6000612a9582612992565b9150612aa083612992565b925082612ab057612aaf612aea565b5b828206905092915050565b7f4e487b7100000000000000000000000000000000000000000000000000000000600052601160045260246000fd5b7f4e487b7100000000000000000000000000000000000000000000000000000000600052601260045260246000fd5b7f4e487b7100000000000000000000000000000000000000000000000000000000600052602260045260246000fd5b7f4e487b7100000000000000000000000000000000000000000000000000000000600052603260045260246000fd5b7f4e487b7100000000000000000000000000000000000000000000000000000000600052604160045260246000fd5b600080fd5b600080fd5b600080fd5b600080fd5b6000601f19601f8301169050919050565b7f4552433732313a207472616e7366657220746f206e6f6e20455243373231526560008201527f63656976657220696d706c656d656e7465720000000000000000000000000000602082015250565b7f4f776e61626c653a206e6577206f776e657220697320746865207a65726f206160008201527f6464726573730000000000000000000000000000000000000000000000000000602082015250565b7f4552433732313a207472616e736665722066726f6d20696e636f72726563742060008201527f6f776e6572000000000000000000000000000000000000000000000000000000602082015250565b7f4552433732313a20746f6b656e20616c7265616479206d696e74656400000000600082015250565b7f4552433732313a207472616e7366657220746f20746865207a65726f2061646460008201527f7265737300000000000000000000000000000000000000000000000000000000602082015250565b7f4552433732313a20617070726f766520746f2063616c6c657200000000000000600082015250565b7f4552433732313a206f70657261746f7220717565727920666f72206e6f6e657860008201527f697374656e7420746f6b656e0000000000000000000000000000000000000000602082015250565b7f4552433732313a20617070726f76652063616c6c6572206973206e6f74206f7760008201527f6e6572206e6f7220617070726f76656420666f7220616c6c0000000000000000602082015250565b7f4552433732313a2062616c616e636520717565727920666f7220746865207a6560008201527f726f206164647265737300000000000000000000000000000000000000000000602082015250565b7f4552433732313a206f776e657220717565727920666f72206e6f6e657869737460008201527f656e7420746f6b656e0000000000000000000000000000000000000000000000602082015250565b7f45524337323155524953746f726167653a2055524920736574206f66206e6f6e60008201527f6578697374656e7420746f6b656e000000000000000000000000000000000000602082015250565b7f4552433732313a206d696e7420746f20746865207a65726f2061646472657373600082015250565b7f45524337323155524953746f726167653a2055524920717565727920666f722060008201527f6e6f6e6578697374656e7420746f6b656e000000000000000000000000000000602082015250565b7f4552433732313a20617070726f76656420717565727920666f72206e6f6e657860008201527f697374656e7420746f6b656e0000000000000000000000000000000000000000602082015250565b7f4f776e61626c653a2063616c6c6572206973206e6f7420746865206f776e6572600082015250565b7f4552433732314d657461646174613a2055524920717565727920666f72206e6f60008201527f6e6578697374656e7420746f6b656e0000000000000000000000000000000000602082015250565b7f4552433732313a20617070726f76616c20746f2063757272656e74206f776e6560008201527f7200000000000000000000000000000000000000000000000000000000000000602082015250565b7f4552433732313a207472616e736665722063616c6c6572206973206e6f74206f60008201527f776e6572206e6f7220617070726f766564000000000000000000000000000000602082015250565b6130ca81612916565b81146130d557600080fd5b50565b6130e181612928565b81146130ec57600080fd5b50565b6130f881612934565b811461310357600080fd5b50565b61310f81612960565b811461311a57600080fd5b50565b61312681612992565b811461313157600080fd5b5056fea26469706673582212202ef1bb1db6d1056ae965abaa9dfeb013c1c442dd58ddbe01dab7de396826713264736f6c63430008070033",
  "immutableReferences": {},
  "source": "//SPDX-License-Identifier: Unlicense\npragma solidity ^0.8.7;\n\nimport \"@openzeppelin/contracts/token/ERC721/ERC721.sol\";\nimport \"@openzeppelin/contracts/utils/Counters.sol\";\nimport \"@openzeppelin/contracts/access/Ownable.sol\";\nimport \"@openzeppelin/contracts/token/ERC721/extensions/ERC721URIStorage.sol\";\nimport \"@openzeppelin/contracts/security/ReentrancyGuard.sol\";\n\ncontract MyNFT is ERC721URIStorage, Ownable {\n    using Counters for Counters.Counter;\n\n    Counters.Counter private _tokenIds;\n\n    constructor() ERC721(\"Hello World\", \"HW\") {}\n\n    function mintNFT(address recipient, string memory tokenURI)\n        public\n        onlyOwner\n        returns (uint256)\n    {\n        _tokenIds.increment();\n        uint256 newItemId = _tokenIds.current();\n        _mint(recipient, newItemId);\n        _setTokenURI(newItemId, tokenURI);\n        return newItemId;\n    }\n    function transfer (IERC721 _nft) public {\n        uint256 newItemId = _tokenIds.current();\n        _nft.transferFrom(msg.sender, address(this), newItemId);\n    }\n}",
  "sourcePath": "/Users/siddharth/Desktop/truffle/contracts/polygon/MyNFT.sol",
  "compiler": {
    "name": "solc",
    "version": "0.8.7+commit.e28d00a7.Emscripten.clang"
  },
  "schemaVersion": "3.4.7",
  "updatedAt": "2022-05-30T10:24:25.002Z",
  "devdoc": {
    "kind": "dev",
    "methods": {
      "approve(address,uint256)": {
        "details": "See {IERC721-approve}."
      },
      "balanceOf(address)": {
        "details": "See {IERC721-balanceOf}."
      },
      "getApproved(uint256)": {
        "details": "See {IERC721-getApproved}."
      },
      "isApprovedForAll(address,address)": {
        "details": "See {IERC721-isApprovedForAll}."
      },
      "name()": {
        "details": "See {IERC721Metadata-name}."
      },
      "owner()": {
        "details": "Returns the address of the current owner."
      },
      "ownerOf(uint256)": {
        "details": "See {IERC721-ownerOf}."
      },
      "renounceOwnership()": {
        "details": "Leaves the contract without owner. It will not be possible to call `onlyOwner` functions anymore. Can only be called by the current owner. NOTE: Renouncing ownership will leave the contract without an owner, thereby removing any functionality that is only available to the owner."
      },
      "safeTransferFrom(address,address,uint256)": {
        "details": "See {IERC721-safeTransferFrom}."
      },
      "safeTransferFrom(address,address,uint256,bytes)": {
        "details": "See {IERC721-safeTransferFrom}."
      },
      "setApprovalForAll(address,bool)": {
        "details": "See {IERC721-setApprovalForAll}."
      },
      "supportsInterface(bytes4)": {
        "details": "See {IERC165-supportsInterface}."
      },
      "symbol()": {
        "details": "See {IERC721Metadata-symbol}."
      },
      "tokenURI(uint256)": {
        "details": "See {IERC721Metadata-tokenURI}."
      },
      "transferFrom(address,address,uint256)": {
        "details": "See {IERC721-transferFrom}."
      },
      "transferOwnership(address)": {
        "details": "Transfers ownership of the contract to a new account (`newOwner`). Can only be called by the current owner."
      }
    },
    "version": 1
  },
  "userdoc": {
    "kind": "user",
    "methods": {},
    "version": 1
  }
}